{
  "_format": "hh-sol-artifact-1",
  "contractName": "PlanManager",
  "sourceName": "contracts/PlanManager.sol",
  "abi": [
    {
      "anonymous": false,
      "inputs": [
        {
          "indexed": true,
          "internalType": "address",
          "name": "previousOwner",
          "type": "address"
        },
        {
          "indexed": true,
          "internalType": "address",
          "name": "newOwner",
          "type": "address"
        }
      ],
      "name": "OwnershipTransferred",
      "type": "event"
    },
    {
      "anonymous": false,
      "inputs": [
        {
          "indexed": true,
          "internalType": "uint256",
          "name": "planId",
          "type": "uint256"
        },
        {
          "indexed": false,
          "internalType": "address",
          "name": "creator",
          "type": "address"
        },
        {
          "indexed": false,
          "internalType": "bytes32",
          "name": "deploymentId",
          "type": "bytes32"
        },
        {
          "indexed": false,
          "internalType": "uint256",
          "name": "planTemplateId",
          "type": "uint256"
        },
        {
          "indexed": false,
          "internalType": "uint256",
          "name": "price",
          "type": "uint256"
        }
      ],
      "name": "PlanCreated",
      "type": "event"
    },
    {
      "anonymous": false,
      "inputs": [
        {
          "indexed": true,
          "internalType": "uint256",
          "name": "planId",
          "type": "uint256"
        }
      ],
      "name": "PlanRemoved",
      "type": "event"
    },
    {
      "anonymous": false,
      "inputs": [
        {
          "indexed": true,
          "internalType": "uint256",
          "name": "templateId",
          "type": "uint256"
        }
      ],
      "name": "PlanTemplateCreated",
      "type": "event"
    },
    {
      "anonymous": false,
      "inputs": [
        {
          "indexed": true,
          "internalType": "uint256",
          "name": "templateId",
          "type": "uint256"
        },
        {
          "indexed": false,
          "internalType": "bytes32",
          "name": "metadata",
          "type": "bytes32"
        }
      ],
      "name": "PlanTemplateMetadataChanged",
      "type": "event"
    },
    {
      "anonymous": false,
      "inputs": [
        {
          "indexed": true,
          "internalType": "uint256",
          "name": "templateId",
          "type": "uint256"
        },
        {
          "indexed": false,
          "internalType": "bool",
          "name": "active",
          "type": "bool"
        }
      ],
      "name": "PlanTemplateStatusChanged",
      "type": "event"
    },
    {
      "inputs": [
        {
          "internalType": "uint256",
          "name": "planId",
          "type": "uint256"
        },
        {
          "internalType": "bytes32",
          "name": "deploymentId",
          "type": "bytes32"
        }
      ],
      "name": "acceptPlan",
      "outputs": [],
      "stateMutability": "nonpayable",
      "type": "function"
    },
    {
      "inputs": [
        {
          "internalType": "uint256",
          "name": "price",
          "type": "uint256"
        },
        {
          "internalType": "uint256",
          "name": "templateId",
          "type": "uint256"
        },
        {
          "internalType": "bytes32",
          "name": "deploymentId",
          "type": "bytes32"
        }
      ],
      "name": "createPlan",
      "outputs": [],
      "stateMutability": "nonpayable",
      "type": "function"
    },
    {
      "inputs": [
        {
          "internalType": "uint256",
          "name": "period",
          "type": "uint256"
        },
        {
          "internalType": "uint256",
          "name": "dailyReqCap",
          "type": "uint256"
        },
        {
          "internalType": "uint256",
          "name": "rateLimit",
          "type": "uint256"
        },
        {
          "internalType": "bytes32",
          "name": "metadata",
          "type": "bytes32"
        }
      ],
      "name": "createPlanTemplate",
      "outputs": [],
      "stateMutability": "nonpayable",
      "type": "function"
    },
    {
      "inputs": [
        {
          "internalType": "uint256",
          "name": "planId",
          "type": "uint256"
        }
      ],
      "name": "getPlan",
      "outputs": [
        {
          "components": [
            {
              "internalType": "address",
              "name": "indexer",
              "type": "address"
            },
            {
              "internalType": "uint256",
              "name": "price",
              "type": "uint256"
            },
            {
              "internalType": "uint256",
              "name": "templateId",
              "type": "uint256"
            },
            {
              "internalType": "bytes32",
              "name": "deploymentId",
              "type": "bytes32"
            },
            {
              "internalType": "bool",
              "name": "active",
              "type": "bool"
            }
          ],
          "internalType": "struct Plan",
          "name": "",
          "type": "tuple"
        }
      ],
      "stateMutability": "view",
      "type": "function"
    },
    {
      "inputs": [
        {
          "internalType": "uint256",
          "name": "templateId",
          "type": "uint256"
        }
      ],
      "name": "getPlanTemplate",
      "outputs": [
        {
          "components": [
            {
              "internalType": "uint256",
              "name": "period",
              "type": "uint256"
            },
            {
              "internalType": "uint256",
              "name": "dailyReqCap",
              "type": "uint256"
            },
            {
              "internalType": "uint256",
              "name": "rateLimit",
              "type": "uint256"
            },
            {
              "internalType": "bytes32",
              "name": "metadata",
              "type": "bytes32"
            },
            {
              "internalType": "bool",
              "name": "active",
              "type": "bool"
            }
          ],
          "internalType": "struct PlanTemplate",
          "name": "",
          "type": "tuple"
        }
      ],
      "stateMutability": "view",
      "type": "function"
    },
    {
      "inputs": [
        {
          "internalType": "contract ISettings",
          "name": "_settings",
          "type": "address"
        }
      ],
      "name": "initialize",
      "outputs": [],
      "stateMutability": "nonpayable",
      "type": "function"
    },
    {
      "inputs": [],
      "name": "limit",
      "outputs": [
        {
          "internalType": "uint256",
          "name": "",
          "type": "uint256"
        }
      ],
      "stateMutability": "view",
      "type": "function"
    },
    {
      "inputs": [],
      "name": "nextPlanId",
      "outputs": [
        {
          "internalType": "uint256",
          "name": "",
          "type": "uint256"
        }
      ],
      "stateMutability": "view",
      "type": "function"
    },
    {
      "inputs": [],
      "name": "nextTemplateId",
      "outputs": [
        {
          "internalType": "uint256",
          "name": "",
          "type": "uint256"
        }
      ],
      "stateMutability": "view",
      "type": "function"
    },
    {
      "inputs": [],
      "name": "owner",
      "outputs": [
        {
          "internalType": "address",
          "name": "",
          "type": "address"
        }
      ],
      "stateMutability": "view",
      "type": "function"
    },
    {
      "inputs": [
        {
          "internalType": "uint256",
          "name": "planId",
          "type": "uint256"
        }
      ],
      "name": "removePlan",
      "outputs": [],
      "stateMutability": "nonpayable",
      "type": "function"
    },
    {
      "inputs": [],
      "name": "renounceOwnership",
      "outputs": [],
      "stateMutability": "nonpayable",
      "type": "function"
    },
    {
      "inputs": [
        {
          "internalType": "uint256",
          "name": "_limit",
          "type": "uint256"
        }
      ],
      "name": "setIndexerPlanLimit",
      "outputs": [],
      "stateMutability": "nonpayable",
      "type": "function"
    },
    {
      "inputs": [
        {
          "internalType": "contract ISettings",
          "name": "_settings",
          "type": "address"
        }
      ],
      "name": "setSettings",
      "outputs": [],
      "stateMutability": "nonpayable",
      "type": "function"
    },
    {
      "inputs": [],
      "name": "settings",
      "outputs": [
        {
          "internalType": "contract ISettings",
          "name": "",
          "type": "address"
        }
      ],
      "stateMutability": "view",
      "type": "function"
    },
    {
      "inputs": [
        {
          "internalType": "address",
          "name": "newOwner",
          "type": "address"
        }
      ],
      "name": "transferOwnership",
      "outputs": [],
      "stateMutability": "nonpayable",
      "type": "function"
    },
    {
      "inputs": [
        {
          "internalType": "uint256",
          "name": "templateId",
          "type": "uint256"
        },
        {
          "internalType": "bytes32",
          "name": "metadata",
          "type": "bytes32"
        }
      ],
      "name": "updatePlanTemplateMetadata",
      "outputs": [],
      "stateMutability": "nonpayable",
      "type": "function"
    },
    {
      "inputs": [
        {
          "internalType": "uint256",
          "name": "templateId",
          "type": "uint256"
        },
        {
          "internalType": "bool",
          "name": "active",
          "type": "bool"
        }
      ],
      "name": "updatePlanTemplateStatus",
      "outputs": [],
      "stateMutability": "nonpayable",
      "type": "function"
    }
  ],
  "bytecode": "0x608060405234801561001057600080fd5b50612d19806100206000396000f3fe608060405234801561001057600080fd5b50600436106101165760003560e01c80639b1aaa8a116100a2578063c4d66de811610071578063c4d66de8146102a3578063d12edcce146102bf578063e06174e4146102dd578063e9b87cd9146102fb578063f2fde38b1461031757610116565b80639b1aaa8a14610231578063a01d3c2c1461024d578063a4d66daf14610269578063af31d9b01461028757610116565b80635f8d26b2116100e95780635f8d26b21461019f578063715018a6146101bd57806371a9e263146101c7578063771ebc56146101e35780638da5cb5b1461021357610116565b806326cd52741461011b57806328e550e61461014b57806335b29a13146101675780633986418f14610183575b600080fd5b61013560048036038101906101309190611d70565b610333565b6040516101429190611e89565b60405180910390f35b61016560048036038101906101609190611d70565b6103ef565b005b610181600480360381019061017c9190611d70565b6106f0565b005b61019d60048036038101906101989190611ed0565b610776565b005b6101a7610b93565b6040516101b49190611f32565b60405180910390f35b6101c5610b99565b005b6101e160048036038101906101dc9190611f4d565b610c21565b005b6101fd60048036038101906101f89190611d70565b610d4d565b60405161020a9190611ff5565b60405180910390f35b61021b610dbd565b604051610228919061201f565b60405180910390f35b61024b6004803603810190610246919061203a565b610de7565b005b610267600480360381019061026291906120df565b611003565b005b6102716110c3565b60405161027e9190611f32565b60405180910390f35b6102a1600480360381019061029c9190612138565b6110c9565b005b6102bd60048036038101906102b891906120df565b611208565b005b6102c7611346565b6040516102d49190611f32565b60405180910390f35b6102e561134c565b6040516102f291906121d7565b60405180910390f35b61031560048036038101906103109190611f4d565b611372565b005b610331600480360381019061032c919061221e565b611a04565b005b61033b611cb7565b606a60008381526020019081526020016000206040518060a00160405290816000820160009054906101000a900473ffffffffffffffffffffffffffffffffffffffff1673ffffffffffffffffffffffffffffffffffffffff1673ffffffffffffffffffffffffffffffffffffffff1681526020016001820154815260200160028201548152602001600382015481526020016004820160009054906101000a900460ff1615151515815250509050919050565b606560009054906101000a900473ffffffffffffffffffffffffffffffffffffffff1673ffffffffffffffffffffffffffffffffffffffff166374cb38b06040518163ffffffff1660e01b8152600401602060405180830381865afa15801561045c573d6000803e3d6000fd5b505050506040513d601f19601f820116820180604052508101906104809190612260565b73ffffffffffffffffffffffffffffffffffffffff16636c376cc56040518163ffffffff1660e01b81526004016020604051808303816000875af11580156104cc573d6000803e3d6000fd5b505050506040513d601f19601f820116820180604052508101906104f091906122a2565b15610530576040517f08c379a00000000000000000000000000000000000000000000000000000000081526004016105279061232c565b60405180910390fd5b3373ffffffffffffffffffffffffffffffffffffffff16606a600083815260200190815260200160002060000160009054906101000a900473ffffffffffffffffffffffffffffffffffffffff1673ffffffffffffffffffffffffffffffffffffffff16146105d4576040517f08c379a00000000000000000000000000000000000000000000000000000000081526004016105cb90612398565b60405180910390fd5b6000606a60008381526020019081526020016000206003015490506001606b60003373ffffffffffffffffffffffffffffffffffffffff1673ffffffffffffffffffffffffffffffffffffffff1681526020019081526020016000206000838152602001908152602001600020600082825461065091906123e7565b92505081905550606a6000838152602001908152602001600020600080820160006101000a81549073ffffffffffffffffffffffffffffffffffffffff02191690556001820160009055600282016000905560038201600090556004820160006101000a81549060ff02191690555050817e4c797e6739331fc6d5c1ebdf112d63e6a68297fdfd28f35f54561e28fd868d60405160405180910390a25050565b6106f8611afb565b73ffffffffffffffffffffffffffffffffffffffff16610716610dbd565b73ffffffffffffffffffffffffffffffffffffffff161461076c576040517f08c379a000000000000000000000000000000000000000000000000000000000815260040161076390612467565b60405180910390fd5b8060668190555050565b606560009054906101000a900473ffffffffffffffffffffffffffffffffffffffff1673ffffffffffffffffffffffffffffffffffffffff166374cb38b06040518163ffffffff1660e01b8152600401602060405180830381865afa1580156107e3573d6000803e3d6000fd5b505050506040513d601f19601f820116820180604052508101906108079190612260565b73ffffffffffffffffffffffffffffffffffffffff16636c376cc56040518163ffffffff1660e01b81526004016020604051808303816000875af1158015610853573d6000803e3d6000fd5b505050506040513d601f19601f8201168201806040525081019061087791906122a2565b156108b7576040517f08c379a00000000000000000000000000000000000000000000000000000000081526004016108ae9061232c565b60405180910390fd5b600083116108fa576040517f08c379a00000000000000000000000000000000000000000000000000000000081526004016108f1906124d3565b60405180910390fd5b6069600083815260200190815260200160002060040160009054906101000a900460ff1661095d576040517f08c379a00000000000000000000000000000000000000000000000000000000081526004016109549061253f565b60405180910390fd5b606654606b60003373ffffffffffffffffffffffffffffffffffffffff1673ffffffffffffffffffffffffffffffffffffffff168152602001908152602001600020600083815260200190815260200160002054106109f1576040517f08c379a00000000000000000000000000000000000000000000000000000000081526004016109e8906125ab565b60405180910390fd5b6040518060a001604052803373ffffffffffffffffffffffffffffffffffffffff16815260200184815260200183815260200182815260200160011515815250606a6000606854815260200190815260200160002060008201518160000160006101000a81548173ffffffffffffffffffffffffffffffffffffffff021916908373ffffffffffffffffffffffffffffffffffffffff16021790555060208201518160010155604082015181600201556060820151816003015560808201518160040160006101000a81548160ff0219169083151502179055509050506001606b60003373ffffffffffffffffffffffffffffffffffffffff1673ffffffffffffffffffffffffffffffffffffffff16815260200190815260200160002060008381526020019081526020016000206000828254610b2f91906125cb565b925050819055506068547f506977bf21cb741612a724000c21e7d29bdd0d8dee920457f5de0398e07a9f6e33838587604051610b6e9493929190612630565b60405180910390a260686000815480929190610b8990612675565b9190505550505050565b60685481565b610ba1611afb565b73ffffffffffffffffffffffffffffffffffffffff16610bbf610dbd565b73ffffffffffffffffffffffffffffffffffffffff1614610c15576040517f08c379a0000000000000000000000000000000000000000000000000000000008152600401610c0c90612467565b60405180910390fd5b610c1f6000611b03565b565b610c29611afb565b73ffffffffffffffffffffffffffffffffffffffff16610c47610dbd565b73ffffffffffffffffffffffffffffffffffffffff1614610c9d576040517f08c379a0000000000000000000000000000000000000000000000000000000008152600401610c9490612467565b60405180910390fd5b6000606960008481526020019081526020016000206000015411610cf6576040517f08c379a0000000000000000000000000000000000000000000000000000000008152600401610ced90612709565b60405180910390fd5b806069600084815260200190815260200160002060030181905550817f048b5c5804ae54ee57319d92a5b97cb415e564ea8d6125187c51f6d1476003f482604051610d419190612729565b60405180910390a25050565b610d55611d01565b606960008381526020019081526020016000206040518060a0016040529081600082015481526020016001820154815260200160028201548152602001600382015481526020016004820160009054906101000a900460ff1615151515815250509050919050565b6000603360009054906101000a900473ffffffffffffffffffffffffffffffffffffffff16905090565b610def611afb565b73ffffffffffffffffffffffffffffffffffffffff16610e0d610dbd565b73ffffffffffffffffffffffffffffffffffffffff1614610e63576040517f08c379a0000000000000000000000000000000000000000000000000000000008152600401610e5a90612467565b60405180910390fd5b60008411610ea6576040517f08c379a0000000000000000000000000000000000000000000000000000000008152600401610e9d90612790565b60405180910390fd5b60008311610ee9576040517f08c379a0000000000000000000000000000000000000000000000000000000008152600401610ee0906127fc565b60405180910390fd5b60008211610f2c576040517f08c379a0000000000000000000000000000000000000000000000000000000008152600401610f2390612868565b60405180910390fd5b6040518060a00160405280858152602001848152602001838152602001828152602001600115158152506069600060675481526020019081526020016000206000820151816000015560208201518160010155604082015181600201556060820151816003015560808201518160040160006101000a81548160ff0219169083151502179055509050506067547fb44f2aaf744711ccf7df65adea7b18bee26176f01c756baf9474cc0a1f9b8d2660405160405180910390a260676000815480929190610ff890612675565b919050555050505050565b61100b611afb565b73ffffffffffffffffffffffffffffffffffffffff16611029610dbd565b73ffffffffffffffffffffffffffffffffffffffff161461107f576040517f08c379a000000000000000000000000000000000000000000000000000000000815260040161107690612467565b60405180910390fd5b80606560006101000a81548173ffffffffffffffffffffffffffffffffffffffff021916908373ffffffffffffffffffffffffffffffffffffffff16021790555050565b60665481565b6110d1611afb565b73ffffffffffffffffffffffffffffffffffffffff166110ef610dbd565b73ffffffffffffffffffffffffffffffffffffffff1614611145576040517f08c379a000000000000000000000000000000000000000000000000000000000815260040161113c90612467565b60405180910390fd5b600060696000848152602001908152602001600020600001541161119e576040517f08c379a000000000000000000000000000000000000000000000000000000000815260040161119590612709565b60405180910390fd5b806069600084815260200190815260200160002060040160006101000a81548160ff021916908315150217905550817f6278f09839d69e7091c5930d4e8ded33276747b835feaeca81d0880ab6eb4910826040516111fc9190612897565b60405180910390a25050565b600060019054906101000a900460ff166112305760008054906101000a900460ff1615611239565b611238611bc9565b5b611278576040517f08c379a000000000000000000000000000000000000000000000000000000000815260040161126f90612924565b60405180910390fd5b60008060019054906101000a900460ff1615905080156112c8576001600060016101000a81548160ff02191690831515021790555060016000806101000a81548160ff0219169083151502179055505b6112d0611bda565b81606560006101000a81548173ffffffffffffffffffffffffffffffffffffffff021916908373ffffffffffffffffffffffffffffffffffffffff1602179055506005606681905550600160688190555080156113425760008060016101000a81548160ff0219169083151502179055505b5050565b60675481565b606560009054906101000a900473ffffffffffffffffffffffffffffffffffffffff1681565b606560009054906101000a900473ffffffffffffffffffffffffffffffffffffffff1673ffffffffffffffffffffffffffffffffffffffff166374cb38b06040518163ffffffff1660e01b8152600401602060405180830381865afa1580156113df573d6000803e3d6000fd5b505050506040513d601f19601f820116820180604052508101906114039190612260565b73ffffffffffffffffffffffffffffffffffffffff16636c376cc56040518163ffffffff1660e01b81526004016020604051808303816000875af115801561144f573d6000803e3d6000fd5b505050506040513d601f19601f8201168201806040525081019061147391906122a2565b156114b3576040517f08c379a00000000000000000000000000000000000000000000000000000000081526004016114aa9061232c565b60405180910390fd5b6000606a60008481526020019081526020016000206040518060a00160405290816000820160009054906101000a900473ffffffffffffffffffffffffffffffffffffffff1673ffffffffffffffffffffffffffffffffffffffff1673ffffffffffffffffffffffffffffffffffffffff1681526020016001820154815260200160028201548152602001600382015481526020016004820160009054906101000a900460ff161515151581525050905080608001516115a8576040517f08c379a000000000000000000000000000000000000000000000000000000000815260040161159f90612990565b60405180910390fd5b6000801b81606001511461160157818160600151146115fc576040517f08c379a00000000000000000000000000000000000000000000000000000000081526004016115f3906129fc565b60405180910390fd5b611647565b6000801b8203611646576040517f08c379a000000000000000000000000000000000000000000000000000000000815260040161163d90612a68565b60405180910390fd5b5b60006040518061010001604052803373ffffffffffffffffffffffffffffffffffffffff168152602001836000015173ffffffffffffffffffffffffffffffffffffffff16815260200184815260200183602001518152602001428152602001606960008560400151815260200190815260200160002060000154815260200185815260200183604001518152509050606560009054906101000a900473ffffffffffffffffffffffffffffffffffffffff1673ffffffffffffffffffffffffffffffffffffffff1663afc1aaca6040518163ffffffff1660e01b8152600401602060405180830381865afa158015611744573d6000803e3d6000fd5b505050506040513d601f19601f820116820180604052508101906117689190612260565b73ffffffffffffffffffffffffffffffffffffffff166323b872dd33606560009054906101000a900473ffffffffffffffffffffffffffffffffffffffff1673ffffffffffffffffffffffffffffffffffffffff16635dfdb6e96040518163ffffffff1660e01b8152600401602060405180830381865afa1580156117f1573d6000803e3d6000fd5b505050506040513d601f19601f820116820180604052508101906118159190612260565b85602001516040518463ffffffff1660e01b815260040161183893929190612a88565b6020604051808303816000875af1158015611857573d6000803e3d6000fd5b505050506040513d601f19601f8201168201806040525081019061187b91906122a2565b506000606560009054906101000a900473ffffffffffffffffffffffffffffffffffffffff1673ffffffffffffffffffffffffffffffffffffffff16635dfdb6e96040518163ffffffff1660e01b8152600401602060405180830381865afa1580156118eb573d6000803e3d6000fd5b505050506040513d601f19601f8201168201806040525081019061190f9190612260565b905060008173ffffffffffffffffffffffffffffffffffffffff16637217158f846040518263ffffffff1660e01b815260040161194c9190612b61565b6020604051808303816000875af115801561196b573d6000803e3d6000fd5b505050506040513d601f19601f8201168201806040525081019061198f9190612b92565b90508173ffffffffffffffffffffffffffffffffffffffff166308051199826040518263ffffffff1660e01b81526004016119ca9190611f32565b600060405180830381600087803b1580156119e457600080fd5b505af11580156119f8573d6000803e3d6000fd5b50505050505050505050565b611a0c611afb565b73ffffffffffffffffffffffffffffffffffffffff16611a2a610dbd565b73ffffffffffffffffffffffffffffffffffffffff1614611a80576040517f08c379a0000000000000000000000000000000000000000000000000000000008152600401611a7790612467565b60405180910390fd5b600073ffffffffffffffffffffffffffffffffffffffff168173ffffffffffffffffffffffffffffffffffffffff1603611aef576040517f08c379a0000000000000000000000000000000000000000000000000000000008152600401611ae690612c31565b60405180910390fd5b611af881611b03565b50565b600033905090565b6000603360009054906101000a900473ffffffffffffffffffffffffffffffffffffffff16905081603360006101000a81548173ffffffffffffffffffffffffffffffffffffffff021916908373ffffffffffffffffffffffffffffffffffffffff1602179055508173ffffffffffffffffffffffffffffffffffffffff168173ffffffffffffffffffffffffffffffffffffffff167f8be0079c531659141344cd1fd0a4f28419497f9722a3daafe3b4186f6b6457e060405160405180910390a35050565b6000611bd430611c33565b15905090565b600060019054906101000a900460ff16611c29576040517f08c379a0000000000000000000000000000000000000000000000000000000008152600401611c2090612cc3565b60405180910390fd5b611c31611c56565b565b6000808273ffffffffffffffffffffffffffffffffffffffff163b119050919050565b600060019054906101000a900460ff16611ca5576040517f08c379a0000000000000000000000000000000000000000000000000000000008152600401611c9c90612cc3565b60405180910390fd5b611cb5611cb0611afb565b611b03565b565b6040518060a00160405280600073ffffffffffffffffffffffffffffffffffffffff1681526020016000815260200160008152602001600080191681526020016000151581525090565b6040518060a00160405280600081526020016000815260200160008152602001600080191681526020016000151581525090565b600080fd5b6000819050919050565b611d4d81611d3a565b8114611d5857600080fd5b50565b600081359050611d6a81611d44565b92915050565b600060208284031215611d8657611d85611d35565b5b6000611d9484828501611d5b565b91505092915050565b600073ffffffffffffffffffffffffffffffffffffffff82169050919050565b6000611dc882611d9d565b9050919050565b611dd881611dbd565b82525050565b611de781611d3a565b82525050565b6000819050919050565b611e0081611ded565b82525050565b60008115159050919050565b611e1b81611e06565b82525050565b60a082016000820151611e376000850182611dcf565b506020820151611e4a6020850182611dde565b506040820151611e5d6040850182611dde565b506060820151611e706060850182611df7565b506080820151611e836080850182611e12565b50505050565b600060a082019050611e9e6000830184611e21565b92915050565b611ead81611ded565b8114611eb857600080fd5b50565b600081359050611eca81611ea4565b92915050565b600080600060608486031215611ee957611ee8611d35565b5b6000611ef786828701611d5b565b9350506020611f0886828701611d5b565b9250506040611f1986828701611ebb565b9150509250925092565b611f2c81611d3a565b82525050565b6000602082019050611f476000830184611f23565b92915050565b60008060408385031215611f6457611f63611d35565b5b6000611f7285828601611d5b565b9250506020611f8385828601611ebb565b9150509250929050565b60a082016000820151611fa36000850182611dde565b506020820151611fb66020850182611dde565b506040820151611fc96040850182611dde565b506060820151611fdc6060850182611df7565b506080820151611fef6080850182611e12565b50505050565b600060a08201905061200a6000830184611f8d565b92915050565b61201981611dbd565b82525050565b60006020820190506120346000830184612010565b92915050565b6000806000806080858703121561205457612053611d35565b5b600061206287828801611d5b565b945050602061207387828801611d5b565b935050604061208487828801611d5b565b925050606061209587828801611ebb565b91505092959194509250565b60006120ac82611dbd565b9050919050565b6120bc816120a1565b81146120c757600080fd5b50565b6000813590506120d9816120b3565b92915050565b6000602082840312156120f5576120f4611d35565b5b6000612103848285016120ca565b91505092915050565b61211581611e06565b811461212057600080fd5b50565b6000813590506121328161210c565b92915050565b6000806040838503121561214f5761214e611d35565b5b600061215d85828601611d5b565b925050602061216e85828601612123565b9150509250929050565b6000819050919050565b600061219d61219861219384611d9d565b612178565b611d9d565b9050919050565b60006121af82612182565b9050919050565b60006121c1826121a4565b9050919050565b6121d1816121b6565b82525050565b60006020820190506121ec60008301846121c8565b92915050565b6121fb81611dbd565b811461220657600080fd5b50565b600081359050612218816121f2565b92915050565b60006020828403121561223457612233611d35565b5b600061224284828501612209565b91505092915050565b60008151905061225a816121f2565b92915050565b60006020828403121561227657612275611d35565b5b60006122848482850161224b565b91505092915050565b60008151905061229c8161210c565b92915050565b6000602082840312156122b8576122b7611d35565b5b60006122c68482850161228d565b91505092915050565b600082825260208201905092915050565b7f4730313900000000000000000000000000000000000000000000000000000000600082015250565b60006123166004836122cf565b9150612321826122e0565b602082019050919050565b6000602082019050818103600083015261234581612309565b9050919050565b7f504d303038000000000000000000000000000000000000000000000000000000600082015250565b60006123826005836122cf565b915061238d8261234c565b602082019050919050565b600060208201905081810360008301526123b181612375565b9050919050565b7f4e487b7100000000000000000000000000000000000000000000000000000000600052601160045260246000fd5b60006123f282611d3a565b91506123fd83611d3a565b9250828210156124105761240f6123b8565b5b828203905092915050565b7f4f776e61626c653a2063616c6c6572206973206e6f7420746865206f776e6572600082015250565b60006124516020836122cf565b915061245c8261241b565b602082019050919050565b6000602082019050818103600083015261248081612444565b9050919050565b7f504d303035000000000000000000000000000000000000000000000000000000600082015250565b60006124bd6005836122cf565b91506124c882612487565b602082019050919050565b600060208201905081810360008301526124ec816124b0565b9050919050565b7f504d303036000000000000000000000000000000000000000000000000000000600082015250565b60006125296005836122cf565b9150612534826124f3565b602082019050919050565b600060208201905081810360008301526125588161251c565b9050919050565b7f504d303037000000000000000000000000000000000000000000000000000000600082015250565b60006125956005836122cf565b91506125a08261255f565b602082019050919050565b600060208201905081810360008301526125c481612588565b9050919050565b60006125d682611d3a565b91506125e183611d3a565b9250827fffffffffffffffffffffffffffffffffffffffffffffffffffffffffffffffff03821115612616576126156123b8565b5b828201905092915050565b61262a81611ded565b82525050565b60006080820190506126456000830187612010565b6126526020830186612621565b61265f6040830185611f23565b61266c6060830184611f23565b95945050505050565b600061268082611d3a565b91507fffffffffffffffffffffffffffffffffffffffffffffffffffffffffffffffff82036126b2576126b16123b8565b5b600182019050919050565b7f504d303034000000000000000000000000000000000000000000000000000000600082015250565b60006126f36005836122cf565b91506126fe826126bd565b602082019050919050565b60006020820190508181036000830152612722816126e6565b9050919050565b600060208201905061273e6000830184612621565b92915050565b7f504d303031000000000000000000000000000000000000000000000000000000600082015250565b600061277a6005836122cf565b915061278582612744565b602082019050919050565b600060208201905081810360008301526127a98161276d565b9050919050565b7f504d303032000000000000000000000000000000000000000000000000000000600082015250565b60006127e66005836122cf565b91506127f1826127b0565b602082019050919050565b60006020820190508181036000830152612815816127d9565b9050919050565b7f504d303033000000000000000000000000000000000000000000000000000000600082015250565b60006128526005836122cf565b915061285d8261281c565b602082019050919050565b6000602082019050818103600083015261288181612845565b9050919050565b61289181611e06565b82525050565b60006020820190506128ac6000830184612888565b92915050565b7f496e697469616c697a61626c653a20636f6e747261637420697320616c72656160008201527f647920696e697469616c697a6564000000000000000000000000000000000000602082015250565b600061290e602e836122cf565b9150612919826128b2565b604082019050919050565b6000602082019050818103600083015261293d81612901565b9050919050565b7f504d303039000000000000000000000000000000000000000000000000000000600082015250565b600061297a6005836122cf565b915061298582612944565b602082019050919050565b600060208201905081810360008301526129a98161296d565b9050919050565b7f504d303130000000000000000000000000000000000000000000000000000000600082015250565b60006129e66005836122cf565b91506129f1826129b0565b602082019050919050565b60006020820190508181036000830152612a15816129d9565b9050919050565b7f504d303131000000000000000000000000000000000000000000000000000000600082015250565b6000612a526005836122cf565b9150612a5d82612a1c565b602082019050919050565b60006020820190508181036000830152612a8181612a45565b9050919050565b6000606082019050612a9d6000830186612010565b612aaa6020830185612010565b612ab76040830184611f23565b949350505050565b61010082016000820151612ad66000850182611dcf565b506020820151612ae96020850182611dcf565b506040820151612afc6040850182611df7565b506060820151612b0f6060850182611dde565b506080820151612b226080850182611dde565b5060a0820151612b3560a0850182611dde565b5060c0820151612b4860c0850182611dde565b5060e0820151612b5b60e0850182611dde565b50505050565b600061010082019050612b776000830184612abf565b92915050565b600081519050612b8c81611d44565b92915050565b600060208284031215612ba857612ba7611d35565b5b6000612bb684828501612b7d565b91505092915050565b7f4f776e61626c653a206e6577206f776e657220697320746865207a65726f206160008201527f6464726573730000000000000000000000000000000000000000000000000000602082015250565b6000612c1b6026836122cf565b9150612c2682612bbf565b604082019050919050565b60006020820190508181036000830152612c4a81612c0e565b9050919050565b7f496e697469616c697a61626c653a20636f6e7472616374206973206e6f74206960008201527f6e697469616c697a696e67000000000000000000000000000000000000000000602082015250565b6000612cad602b836122cf565b9150612cb882612c51565b604082019050919050565b60006020820190508181036000830152612cdc81612ca0565b905091905056fea26469706673582212202beadeef3279c5ca2322c69c646c22a6acb4c146cf694f9151a0b4723943bb2f64736f6c634300080f0033",
  "linkReferences": {},
  "deployedLinkReferences": {}
}