{
  "_format": "hh-sol-artifact-1",
  "contractName": "PlanManager",
  "sourceName": "contracts/PlanManager.sol",
  "abi": [
    {
      "anonymous": false,
      "inputs": [
        {
          "indexed": true,
          "internalType": "address",
          "name": "previousOwner",
          "type": "address"
        },
        {
          "indexed": true,
          "internalType": "address",
          "name": "newOwner",
          "type": "address"
        }
      ],
      "name": "OwnershipTransferred",
      "type": "event"
    },
    {
      "anonymous": false,
      "inputs": [
        {
          "indexed": true,
          "internalType": "uint256",
          "name": "planId",
          "type": "uint256"
        },
        {
          "indexed": false,
          "internalType": "address",
          "name": "creator",
          "type": "address"
        },
        {
          "indexed": false,
          "internalType": "bytes32",
          "name": "deploymentId",
          "type": "bytes32"
        },
        {
          "indexed": false,
          "internalType": "uint256",
          "name": "planTemplateId",
          "type": "uint256"
        },
        {
          "indexed": false,
          "internalType": "uint256",
          "name": "price",
          "type": "uint256"
        }
      ],
      "name": "PlanCreated",
      "type": "event"
    },
    {
      "anonymous": false,
      "inputs": [
        {
          "indexed": true,
          "internalType": "uint256",
          "name": "planId",
          "type": "uint256"
        }
      ],
      "name": "PlanRemoved",
      "type": "event"
    },
    {
      "anonymous": false,
      "inputs": [
        {
          "indexed": true,
          "internalType": "uint256",
          "name": "templateId",
          "type": "uint256"
        }
      ],
      "name": "PlanTemplateCreated",
      "type": "event"
    },
    {
      "anonymous": false,
      "inputs": [
        {
          "indexed": true,
          "internalType": "uint256",
          "name": "templateId",
          "type": "uint256"
        },
        {
          "indexed": false,
          "internalType": "bytes32",
          "name": "metadata",
          "type": "bytes32"
        }
      ],
      "name": "PlanTemplateMetadataChanged",
      "type": "event"
    },
    {
      "anonymous": false,
      "inputs": [
        {
          "indexed": true,
          "internalType": "uint256",
          "name": "templateId",
          "type": "uint256"
        },
        {
          "indexed": false,
          "internalType": "bool",
          "name": "active",
          "type": "bool"
        }
      ],
      "name": "PlanTemplateStatusChanged",
      "type": "event"
    },
    {
      "inputs": [
        {
          "internalType": "uint256",
          "name": "planId",
          "type": "uint256"
        },
        {
          "internalType": "bytes32",
          "name": "deploymentId",
          "type": "bytes32"
        }
      ],
      "name": "acceptPlan",
      "outputs": [],
      "stateMutability": "nonpayable",
      "type": "function"
    },
    {
      "inputs": [
        {
          "internalType": "uint256",
          "name": "price",
          "type": "uint256"
        },
        {
          "internalType": "uint256",
          "name": "templateId",
          "type": "uint256"
        },
        {
          "internalType": "bytes32",
          "name": "deploymentId",
          "type": "bytes32"
        }
      ],
      "name": "createPlan",
      "outputs": [],
      "stateMutability": "nonpayable",
      "type": "function"
    },
    {
      "inputs": [
        {
          "internalType": "uint256",
          "name": "period",
          "type": "uint256"
        },
        {
          "internalType": "uint256",
          "name": "dailyReqCap",
          "type": "uint256"
        },
        {
          "internalType": "uint256",
          "name": "rateLimit",
          "type": "uint256"
        },
        {
          "internalType": "address",
          "name": "priceToken",
          "type": "address"
        },
        {
          "internalType": "bytes32",
          "name": "metadata",
          "type": "bytes32"
        }
      ],
      "name": "createPlanTemplate",
      "outputs": [],
      "stateMutability": "nonpayable",
      "type": "function"
    },
    {
      "inputs": [
        {
          "internalType": "uint256",
          "name": "planId",
          "type": "uint256"
        }
      ],
      "name": "getPlan",
      "outputs": [
        {
          "components": [
            {
              "internalType": "address",
              "name": "indexer",
              "type": "address"
            },
            {
              "internalType": "uint256",
              "name": "price",
              "type": "uint256"
            },
            {
              "internalType": "uint256",
              "name": "templateId",
              "type": "uint256"
            },
            {
              "internalType": "bytes32",
              "name": "deploymentId",
              "type": "bytes32"
            },
            {
              "internalType": "bool",
              "name": "active",
              "type": "bool"
            }
          ],
          "internalType": "struct Plan",
          "name": "",
          "type": "tuple"
        }
      ],
      "stateMutability": "view",
      "type": "function"
    },
    {
      "inputs": [
        {
          "internalType": "uint256",
          "name": "templateId",
          "type": "uint256"
        }
      ],
      "name": "getPlanTemplate",
      "outputs": [
        {
          "components": [
            {
              "internalType": "uint256",
              "name": "period",
              "type": "uint256"
            },
            {
              "internalType": "uint256",
              "name": "dailyReqCap",
              "type": "uint256"
            },
            {
              "internalType": "uint256",
              "name": "rateLimit",
              "type": "uint256"
            },
            {
              "internalType": "address",
              "name": "priceToken",
              "type": "address"
            },
            {
              "internalType": "bytes32",
              "name": "metadata",
              "type": "bytes32"
            },
            {
              "internalType": "bool",
              "name": "active",
              "type": "bool"
            }
          ],
          "internalType": "struct PlanTemplateV2",
          "name": "",
          "type": "tuple"
        }
      ],
      "stateMutability": "view",
      "type": "function"
    },
    {
      "inputs": [
        {
          "internalType": "contract ISettings",
          "name": "_settings",
          "type": "address"
        }
      ],
      "name": "initialize",
      "outputs": [],
      "stateMutability": "nonpayable",
      "type": "function"
    },
    {
      "inputs": [],
      "name": "limit",
      "outputs": [
        {
          "internalType": "uint256",
          "name": "",
          "type": "uint256"
        }
      ],
      "stateMutability": "view",
      "type": "function"
    },
    {
      "inputs": [],
      "name": "nextPlanId",
      "outputs": [
        {
          "internalType": "uint256",
          "name": "",
          "type": "uint256"
        }
      ],
      "stateMutability": "view",
      "type": "function"
    },
    {
      "inputs": [],
      "name": "nextTemplateId",
      "outputs": [
        {
          "internalType": "uint256",
          "name": "",
          "type": "uint256"
        }
      ],
      "stateMutability": "view",
      "type": "function"
    },
    {
      "inputs": [],
      "name": "owner",
      "outputs": [
        {
          "internalType": "address",
          "name": "",
          "type": "address"
        }
      ],
      "stateMutability": "view",
      "type": "function"
    },
    {
      "inputs": [
        {
          "internalType": "uint256",
          "name": "planId",
          "type": "uint256"
        }
      ],
      "name": "removePlan",
      "outputs": [],
      "stateMutability": "nonpayable",
      "type": "function"
    },
    {
      "inputs": [],
      "name": "renounceOwnership",
      "outputs": [],
      "stateMutability": "nonpayable",
      "type": "function"
    },
    {
      "inputs": [
        {
          "internalType": "uint256",
          "name": "_limit",
          "type": "uint256"
        }
      ],
      "name": "setIndexerPlanLimit",
      "outputs": [],
      "stateMutability": "nonpayable",
      "type": "function"
    },
    {
      "inputs": [
        {
          "internalType": "contract ISettings",
          "name": "_settings",
          "type": "address"
        }
      ],
      "name": "setSettings",
      "outputs": [],
      "stateMutability": "nonpayable",
      "type": "function"
    },
    {
      "inputs": [],
      "name": "settings",
      "outputs": [
        {
          "internalType": "contract ISettings",
          "name": "",
          "type": "address"
        }
      ],
      "stateMutability": "view",
      "type": "function"
    },
    {
      "inputs": [
        {
          "internalType": "address",
          "name": "newOwner",
          "type": "address"
        }
      ],
      "name": "transferOwnership",
      "outputs": [],
      "stateMutability": "nonpayable",
      "type": "function"
    },
    {
      "inputs": [
        {
          "internalType": "uint256",
          "name": "templateId",
          "type": "uint256"
        },
        {
          "internalType": "bytes32",
          "name": "metadata",
          "type": "bytes32"
        }
      ],
      "name": "updatePlanTemplateMetadata",
      "outputs": [],
      "stateMutability": "nonpayable",
      "type": "function"
    },
    {
      "inputs": [
        {
          "internalType": "uint256",
          "name": "templateId",
          "type": "uint256"
        },
        {
          "internalType": "bool",
          "name": "active",
          "type": "bool"
        }
      ],
      "name": "updatePlanTemplateStatus",
      "outputs": [],
      "stateMutability": "nonpayable",
      "type": "function"
    }
  ],
  "bytecode": "0x608060405234801561001057600080fd5b506131b8806100206000396000f3fe608060405234801561001057600080fd5b50600436106101165760003560e01c8063a01d3c2c116100a2578063d12edcce11610071578063d12edcce146102a3578063d7aaf44e146102c1578063e06174e4146102dd578063e9b87cd9146102fb578063f2fde38b1461031757610116565b8063a01d3c2c14610231578063a4d66daf1461024d578063af31d9b01461026b578063c4d66de81461028757610116565b80635f8d26b2116100e95780635f8d26b21461019f578063715018a6146101bd57806371a9e263146101c7578063771ebc56146101e35780638da5cb5b1461021357610116565b806326cd52741461011b57806328e550e61461014b57806335b29a13146101675780633986418f14610183575b600080fd5b610135600480360381019061013091906121e8565b610333565b6040516101429190612301565b60405180910390f35b610165600480360381019061016091906121e8565b6103ef565b005b610181600480360381019061017c91906121e8565b6106f0565b005b61019d60048036038101906101989190612348565b610776565b005b6101a7610b7c565b6040516101b491906123aa565b60405180910390f35b6101c5610b82565b005b6101e160048036038101906101dc91906123c5565b610c0a565b005b6101fd60048036038101906101f891906121e8565b610d7c565b60405161020a9190612480565b60405180910390f35b61021b610fb8565b60405161022891906124aa565b60405180910390f35b61024b60048036038101906102469190612503565b610fe2565b005b6102556110a2565b60405161026291906123aa565b60405180910390f35b6102856004803603810190610280919061255c565b6110a8565b005b6102a1600480360381019061029c9190612503565b611240565b005b6102ab61137e565b6040516102b891906123aa565b60405180910390f35b6102db60048036038101906102d691906125c8565b611384565b005b6102e5611604565b6040516102f291906126a2565b60405180910390f35b610315600480360381019061031091906123c5565b61162a565b005b610331600480360381019061032c91906126bd565b611e5f565b005b61033b612112565b606a60008381526020019081526020016000206040518060a00160405290816000820160009054906101000a900473ffffffffffffffffffffffffffffffffffffffff1673ffffffffffffffffffffffffffffffffffffffff1673ffffffffffffffffffffffffffffffffffffffff1681526020016001820154815260200160028201548152602001600382015481526020016004820160009054906101000a900460ff1615151515815250509050919050565b606560009054906101000a900473ffffffffffffffffffffffffffffffffffffffff1673ffffffffffffffffffffffffffffffffffffffff166374cb38b06040518163ffffffff1660e01b8152600401602060405180830381865afa15801561045c573d6000803e3d6000fd5b505050506040513d601f19601f8201168201806040525081019061048091906126ff565b73ffffffffffffffffffffffffffffffffffffffff16636c376cc56040518163ffffffff1660e01b81526004016020604051808303816000875af11580156104cc573d6000803e3d6000fd5b505050506040513d601f19601f820116820180604052508101906104f09190612741565b15610530576040517f08c379a0000000000000000000000000000000000000000000000000000000008152600401610527906127cb565b60405180910390fd5b3373ffffffffffffffffffffffffffffffffffffffff16606a600083815260200190815260200160002060000160009054906101000a900473ffffffffffffffffffffffffffffffffffffffff1673ffffffffffffffffffffffffffffffffffffffff16146105d4576040517f08c379a00000000000000000000000000000000000000000000000000000000081526004016105cb90612837565b60405180910390fd5b6000606a60008381526020019081526020016000206003015490506001606b60003373ffffffffffffffffffffffffffffffffffffffff1673ffffffffffffffffffffffffffffffffffffffff168152602001908152602001600020600083815260200190815260200160002060008282546106509190612886565b92505081905550606a6000838152602001908152602001600020600080820160006101000a81549073ffffffffffffffffffffffffffffffffffffffff02191690556001820160009055600282016000905560038201600090556004820160006101000a81549060ff02191690555050817e4c797e6739331fc6d5c1ebdf112d63e6a68297fdfd28f35f54561e28fd868d60405160405180910390a25050565b6106f8611f56565b73ffffffffffffffffffffffffffffffffffffffff16610716610fb8565b73ffffffffffffffffffffffffffffffffffffffff161461076c576040517f08c379a000000000000000000000000000000000000000000000000000000000815260040161076390612906565b60405180910390fd5b8060668190555050565b606560009054906101000a900473ffffffffffffffffffffffffffffffffffffffff1673ffffffffffffffffffffffffffffffffffffffff166374cb38b06040518163ffffffff1660e01b8152600401602060405180830381865afa1580156107e3573d6000803e3d6000fd5b505050506040513d601f19601f8201168201806040525081019061080791906126ff565b73ffffffffffffffffffffffffffffffffffffffff16636c376cc56040518163ffffffff1660e01b81526004016020604051808303816000875af1158015610853573d6000803e3d6000fd5b505050506040513d601f19601f820116820180604052508101906108779190612741565b156108b7576040517f08c379a00000000000000000000000000000000000000000000000000000000081526004016108ae906127cb565b60405180910390fd5b600083116108fa576040517f08c379a00000000000000000000000000000000000000000000000000000000081526004016108f190612972565b60405180910390fd5b61090382610d7c565b60a00151610946576040517f08c379a000000000000000000000000000000000000000000000000000000000815260040161093d906129de565b60405180910390fd5b606654606b60003373ffffffffffffffffffffffffffffffffffffffff1673ffffffffffffffffffffffffffffffffffffffff168152602001908152602001600020600083815260200190815260200160002054106109da576040517f08c379a00000000000000000000000000000000000000000000000000000000081526004016109d190612a4a565b60405180910390fd5b6040518060a001604052803373ffffffffffffffffffffffffffffffffffffffff16815260200184815260200183815260200182815260200160011515815250606a6000606854815260200190815260200160002060008201518160000160006101000a81548173ffffffffffffffffffffffffffffffffffffffff021916908373ffffffffffffffffffffffffffffffffffffffff16021790555060208201518160010155604082015181600201556060820151816003015560808201518160040160006101000a81548160ff0219169083151502179055509050506001606b60003373ffffffffffffffffffffffffffffffffffffffff1673ffffffffffffffffffffffffffffffffffffffff16815260200190815260200160002060008381526020019081526020016000206000828254610b189190612a6a565b925050819055506068547f506977bf21cb741612a724000c21e7d29bdd0d8dee920457f5de0398e07a9f6e33838587604051610b579493929190612acf565b60405180910390a260686000815480929190610b7290612b14565b9190505550505050565b60685481565b610b8a611f56565b73ffffffffffffffffffffffffffffffffffffffff16610ba8610fb8565b73ffffffffffffffffffffffffffffffffffffffff1614610bfe576040517f08c379a0000000000000000000000000000000000000000000000000000000008152600401610bf590612906565b60405180910390fd5b610c086000611f5e565b565b610c12611f56565b73ffffffffffffffffffffffffffffffffffffffff16610c30610fb8565b73ffffffffffffffffffffffffffffffffffffffff1614610c86576040517f08c379a0000000000000000000000000000000000000000000000000000000008152600401610c7d90612906565b60405180910390fd5b6000606c6000848152602001908152602001600020600001541115610cc55780606c600084815260200190815260200160002060040181905550610d40565b600060696000848152602001908152602001600020600001541115610d0457806069600084815260200190815260200160002060030181905550610d3f565b6040517f08c379a0000000000000000000000000000000000000000000000000000000008152600401610d3690612ba8565b60405180910390fd5b5b817f048b5c5804ae54ee57319d92a5b97cb415e564ea8d6125187c51f6d1476003f482604051610d709190612bc8565b60405180910390a25050565b610d8461215c565b6000606c6000848152602001908152602001600020600001541115610e6157606c60008381526020019081526020016000206040518060c00160405290816000820154815260200160018201548152602001600282015481526020016003820160009054906101000a900473ffffffffffffffffffffffffffffffffffffffff1673ffffffffffffffffffffffffffffffffffffffff1673ffffffffffffffffffffffffffffffffffffffff168152602001600482015481526020016005820160009054906101000a900460ff1615151515815250509050610fb3565b6000606960008481526020019081526020016000206040518060a0016040529081600082015481526020016001820154815260200160028201548152602001600382015481526020016004820160009054906101000a900460ff16151515158152505090506040518060c00160405280826000015181526020018260200151815260200182604001518152602001606560009054906101000a900473ffffffffffffffffffffffffffffffffffffffff1673ffffffffffffffffffffffffffffffffffffffff1663afc1aaca6040518163ffffffff1660e01b8152600401602060405180830381865afa158015610f5c573d6000803e3d6000fd5b505050506040513d601f19601f82011682018060405250810190610f8091906126ff565b73ffffffffffffffffffffffffffffffffffffffff16815260200182606001518152602001826080015115158152509150505b919050565b6000603360009054906101000a900473ffffffffffffffffffffffffffffffffffffffff16905090565b610fea611f56565b73ffffffffffffffffffffffffffffffffffffffff16611008610fb8565b73ffffffffffffffffffffffffffffffffffffffff161461105e576040517f08c379a000000000000000000000000000000000000000000000000000000000815260040161105590612906565b60405180910390fd5b80606560006101000a81548173ffffffffffffffffffffffffffffffffffffffff021916908373ffffffffffffffffffffffffffffffffffffffff16021790555050565b60665481565b6110b0611f56565b73ffffffffffffffffffffffffffffffffffffffff166110ce610fb8565b73ffffffffffffffffffffffffffffffffffffffff1614611124576040517f08c379a000000000000000000000000000000000000000000000000000000000815260040161111b90612906565b60405180910390fd5b6000606c60008481526020019081526020016000206000015411156111765780606c600084815260200190815260200160002060050160006101000a81548160ff021916908315150217905550611204565b6000606960008481526020019081526020016000206000015411156111c857806069600084815260200190815260200160002060040160006101000a81548160ff021916908315150217905550611203565b6040517f08c379a00000000000000000000000000000000000000000000000000000000081526004016111fa90612ba8565b60405180910390fd5b5b817f6278f09839d69e7091c5930d4e8ded33276747b835feaeca81d0880ab6eb4910826040516112349190612bf2565b60405180910390a25050565b600060019054906101000a900460ff166112685760008054906101000a900460ff1615611271565b611270612024565b5b6112b0576040517f08c379a00000000000000000000000000000000000000000000000000000000081526004016112a790612c7f565b60405180910390fd5b60008060019054906101000a900460ff161590508015611300576001600060016101000a81548160ff02191690831515021790555060016000806101000a81548160ff0219169083151502179055505b611308612035565b81606560006101000a81548173ffffffffffffffffffffffffffffffffffffffff021916908373ffffffffffffffffffffffffffffffffffffffff16021790555060056066819055506001606881905550801561137a5760008060016101000a81548160ff0219169083151502179055505b5050565b60675481565b61138c611f56565b73ffffffffffffffffffffffffffffffffffffffff166113aa610fb8565b73ffffffffffffffffffffffffffffffffffffffff1614611400576040517f08c379a00000000000000000000000000000000000000000000000000000000081526004016113f790612906565b60405180910390fd5b60008511611443576040517f08c379a000000000000000000000000000000000000000000000000000000000815260040161143a90612ceb565b60405180910390fd5b60008411611486576040517f08c379a000000000000000000000000000000000000000000000000000000000815260040161147d90612d57565b60405180910390fd5b600083116114c9576040517f08c379a00000000000000000000000000000000000000000000000000000000081526004016114c090612dc3565b60405180910390fd5b6040518060c001604052808681526020018581526020018481526020018373ffffffffffffffffffffffffffffffffffffffff16815260200182815260200160011515815250606c6000606754815260200190815260200160002060008201518160000155602082015181600101556040820151816002015560608201518160030160006101000a81548173ffffffffffffffffffffffffffffffffffffffff021916908373ffffffffffffffffffffffffffffffffffffffff1602179055506080820151816004015560a08201518160050160006101000a81548160ff0219169083151502179055509050506067547fb44f2aaf744711ccf7df65adea7b18bee26176f01c756baf9474cc0a1f9b8d2660405160405180910390a2606760008154809291906115f890612b14565b91905055505050505050565b606560009054906101000a900473ffffffffffffffffffffffffffffffffffffffff1681565b606560009054906101000a900473ffffffffffffffffffffffffffffffffffffffff1673ffffffffffffffffffffffffffffffffffffffff166374cb38b06040518163ffffffff1660e01b8152600401602060405180830381865afa158015611697573d6000803e3d6000fd5b505050506040513d601f19601f820116820180604052508101906116bb91906126ff565b73ffffffffffffffffffffffffffffffffffffffff16636c376cc56040518163ffffffff1660e01b81526004016020604051808303816000875af1158015611707573d6000803e3d6000fd5b505050506040513d601f19601f8201168201806040525081019061172b9190612741565b1561176b576040517f08c379a0000000000000000000000000000000000000000000000000000000008152600401611762906127cb565b60405180910390fd5b6000606a60008481526020019081526020016000206040518060a00160405290816000820160009054906101000a900473ffffffffffffffffffffffffffffffffffffffff1673ffffffffffffffffffffffffffffffffffffffff1673ffffffffffffffffffffffffffffffffffffffff1681526020016001820154815260200160028201548152602001600382015481526020016004820160009054906101000a900460ff16151515158152505090508060800151611860576040517f08c379a000000000000000000000000000000000000000000000000000000000815260040161185790612e2f565b60405180910390fd5b6000801b8160600151146118b957818160600151146118b4576040517f08c379a00000000000000000000000000000000000000000000000000000000081526004016118ab90612e9b565b60405180910390fd5b6118ff565b6000801b82036118fe576040517f08c379a00000000000000000000000000000000000000000000000000000000081526004016118f590612f07565b60405180910390fd5b5b600061190e8260400151610d7c565b90506000606560009054906101000a900473ffffffffffffffffffffffffffffffffffffffff1673ffffffffffffffffffffffffffffffffffffffff1663fca513a86040518163ffffffff1660e01b8152600401602060405180830381865afa15801561197f573d6000803e3d6000fd5b505050506040513d601f19601f820116820180604052508101906119a391906126ff565b73ffffffffffffffffffffffffffffffffffffffff16634bb846e18360600151606560009054906101000a900473ffffffffffffffffffffffffffffffffffffffff1673ffffffffffffffffffffffffffffffffffffffff1663afc1aaca6040518163ffffffff1660e01b8152600401602060405180830381865afa158015611a30573d6000803e3d6000fd5b505050506040513d601f19601f82011682018060405250810190611a5491906126ff565b86602001516040518463ffffffff1660e01b8152600401611a7793929190612f27565b602060405180830381865afa158015611a94573d6000803e3d6000fd5b505050506040513d601f19601f82011682018060405250810190611ab89190612f73565b905060006040518061010001604052803373ffffffffffffffffffffffffffffffffffffffff168152602001856000015173ffffffffffffffffffffffffffffffffffffffff1681526020018681526020018381526020014281526020018460000151815260200187815260200185604001518152509050606560009054906101000a900473ffffffffffffffffffffffffffffffffffffffff1673ffffffffffffffffffffffffffffffffffffffff1663afc1aaca6040518163ffffffff1660e01b8152600401602060405180830381865afa158015611b9d573d6000803e3d6000fd5b505050506040513d601f19601f82011682018060405250810190611bc191906126ff565b73ffffffffffffffffffffffffffffffffffffffff166323b872dd33606560009054906101000a900473ffffffffffffffffffffffffffffffffffffffff1673ffffffffffffffffffffffffffffffffffffffff16635dfdb6e96040518163ffffffff1660e01b8152600401602060405180830381865afa158015611c4a573d6000803e3d6000fd5b505050506040513d601f19601f82011682018060405250810190611c6e91906126ff565b87602001516040518463ffffffff1660e01b8152600401611c9193929190612f27565b6020604051808303816000875af1158015611cb0573d6000803e3d6000fd5b505050506040513d601f19601f82011682018060405250810190611cd49190612741565b506000606560009054906101000a900473ffffffffffffffffffffffffffffffffffffffff1673ffffffffffffffffffffffffffffffffffffffff16635dfdb6e96040518163ffffffff1660e01b8152600401602060405180830381865afa158015611d44573d6000803e3d6000fd5b505050506040513d601f19601f82011682018060405250810190611d6891906126ff565b905060008173ffffffffffffffffffffffffffffffffffffffff16637217158f846040518263ffffffff1660e01b8152600401611da59190613042565b6020604051808303816000875af1158015611dc4573d6000803e3d6000fd5b505050506040513d601f19601f82011682018060405250810190611de89190612f73565b90508173ffffffffffffffffffffffffffffffffffffffff166308051199826040518263ffffffff1660e01b8152600401611e2391906123aa565b600060405180830381600087803b158015611e3d57600080fd5b505af1158015611e51573d6000803e3d6000fd5b505050505050505050505050565b611e67611f56565b73ffffffffffffffffffffffffffffffffffffffff16611e85610fb8565b73ffffffffffffffffffffffffffffffffffffffff1614611edb576040517f08c379a0000000000000000000000000000000000000000000000000000000008152600401611ed290612906565b60405180910390fd5b600073ffffffffffffffffffffffffffffffffffffffff168173ffffffffffffffffffffffffffffffffffffffff1603611f4a576040517f08c379a0000000000000000000000000000000000000000000000000000000008152600401611f41906130d0565b60405180910390fd5b611f5381611f5e565b50565b600033905090565b6000603360009054906101000a900473ffffffffffffffffffffffffffffffffffffffff16905081603360006101000a81548173ffffffffffffffffffffffffffffffffffffffff021916908373ffffffffffffffffffffffffffffffffffffffff1602179055508173ffffffffffffffffffffffffffffffffffffffff168173ffffffffffffffffffffffffffffffffffffffff167f8be0079c531659141344cd1fd0a4f28419497f9722a3daafe3b4186f6b6457e060405160405180910390a35050565b600061202f3061208e565b15905090565b600060019054906101000a900460ff16612084576040517f08c379a000000000000000000000000000000000000000000000000000000000815260040161207b90613162565b60405180910390fd5b61208c6120b1565b565b6000808273ffffffffffffffffffffffffffffffffffffffff163b119050919050565b600060019054906101000a900460ff16612100576040517f08c379a00000000000000000000000000000000000000000000000000000000081526004016120f790613162565b60405180910390fd5b61211061210b611f56565b611f5e565b565b6040518060a00160405280600073ffffffffffffffffffffffffffffffffffffffff1681526020016000815260200160008152602001600080191681526020016000151581525090565b6040518060c00160405280600081526020016000815260200160008152602001600073ffffffffffffffffffffffffffffffffffffffff168152602001600080191681526020016000151581525090565b600080fd5b6000819050919050565b6121c5816121b2565b81146121d057600080fd5b50565b6000813590506121e2816121bc565b92915050565b6000602082840312156121fe576121fd6121ad565b5b600061220c848285016121d3565b91505092915050565b600073ffffffffffffffffffffffffffffffffffffffff82169050919050565b600061224082612215565b9050919050565b61225081612235565b82525050565b61225f816121b2565b82525050565b6000819050919050565b61227881612265565b82525050565b60008115159050919050565b6122938161227e565b82525050565b60a0820160008201516122af6000850182612247565b5060208201516122c26020850182612256565b5060408201516122d56040850182612256565b5060608201516122e8606085018261226f565b5060808201516122fb608085018261228a565b50505050565b600060a0820190506123166000830184612299565b92915050565b61232581612265565b811461233057600080fd5b50565b6000813590506123428161231c565b92915050565b600080600060608486031215612361576123606121ad565b5b600061236f868287016121d3565b9350506020612380868287016121d3565b925050604061239186828701612333565b9150509250925092565b6123a4816121b2565b82525050565b60006020820190506123bf600083018461239b565b92915050565b600080604083850312156123dc576123db6121ad565b5b60006123ea858286016121d3565b92505060206123fb85828601612333565b9150509250929050565b60c08201600082015161241b6000850182612256565b50602082015161242e6020850182612256565b5060408201516124416040850182612256565b5060608201516124546060850182612247565b506080820151612467608085018261226f565b5060a082015161247a60a085018261228a565b50505050565b600060c0820190506124956000830184612405565b92915050565b6124a481612235565b82525050565b60006020820190506124bf600083018461249b565b92915050565b60006124d082612235565b9050919050565b6124e0816124c5565b81146124eb57600080fd5b50565b6000813590506124fd816124d7565b92915050565b600060208284031215612519576125186121ad565b5b6000612527848285016124ee565b91505092915050565b6125398161227e565b811461254457600080fd5b50565b60008135905061255681612530565b92915050565b60008060408385031215612573576125726121ad565b5b6000612581858286016121d3565b925050602061259285828601612547565b9150509250929050565b6125a581612235565b81146125b057600080fd5b50565b6000813590506125c28161259c565b92915050565b600080600080600060a086880312156125e4576125e36121ad565b5b60006125f2888289016121d3565b9550506020612603888289016121d3565b9450506040612614888289016121d3565b9350506060612625888289016125b3565b925050608061263688828901612333565b9150509295509295909350565b6000819050919050565b600061266861266361265e84612215565b612643565b612215565b9050919050565b600061267a8261264d565b9050919050565b600061268c8261266f565b9050919050565b61269c81612681565b82525050565b60006020820190506126b76000830184612693565b92915050565b6000602082840312156126d3576126d26121ad565b5b60006126e1848285016125b3565b91505092915050565b6000815190506126f98161259c565b92915050565b600060208284031215612715576127146121ad565b5b6000612723848285016126ea565b91505092915050565b60008151905061273b81612530565b92915050565b600060208284031215612757576127566121ad565b5b60006127658482850161272c565b91505092915050565b600082825260208201905092915050565b7f4730313900000000000000000000000000000000000000000000000000000000600082015250565b60006127b560048361276e565b91506127c08261277f565b602082019050919050565b600060208201905081810360008301526127e4816127a8565b9050919050565b7f504d303038000000000000000000000000000000000000000000000000000000600082015250565b600061282160058361276e565b915061282c826127eb565b602082019050919050565b6000602082019050818103600083015261285081612814565b9050919050565b7f4e487b7100000000000000000000000000000000000000000000000000000000600052601160045260246000fd5b6000612891826121b2565b915061289c836121b2565b9250828210156128af576128ae612857565b5b828203905092915050565b7f4f776e61626c653a2063616c6c6572206973206e6f7420746865206f776e6572600082015250565b60006128f060208361276e565b91506128fb826128ba565b602082019050919050565b6000602082019050818103600083015261291f816128e3565b9050919050565b7f504d303035000000000000000000000000000000000000000000000000000000600082015250565b600061295c60058361276e565b915061296782612926565b602082019050919050565b6000602082019050818103600083015261298b8161294f565b9050919050565b7f504d303036000000000000000000000000000000000000000000000000000000600082015250565b60006129c860058361276e565b91506129d382612992565b602082019050919050565b600060208201905081810360008301526129f7816129bb565b9050919050565b7f504d303037000000000000000000000000000000000000000000000000000000600082015250565b6000612a3460058361276e565b9150612a3f826129fe565b602082019050919050565b60006020820190508181036000830152612a6381612a27565b9050919050565b6000612a75826121b2565b9150612a80836121b2565b9250827fffffffffffffffffffffffffffffffffffffffffffffffffffffffffffffffff03821115612ab557612ab4612857565b5b828201905092915050565b612ac981612265565b82525050565b6000608082019050612ae4600083018761249b565b612af16020830186612ac0565b612afe604083018561239b565b612b0b606083018461239b565b95945050505050565b6000612b1f826121b2565b91507fffffffffffffffffffffffffffffffffffffffffffffffffffffffffffffffff8203612b5157612b50612857565b5b600182019050919050565b7f504d303034000000000000000000000000000000000000000000000000000000600082015250565b6000612b9260058361276e565b9150612b9d82612b5c565b602082019050919050565b60006020820190508181036000830152612bc181612b85565b9050919050565b6000602082019050612bdd6000830184612ac0565b92915050565b612bec8161227e565b82525050565b6000602082019050612c076000830184612be3565b92915050565b7f496e697469616c697a61626c653a20636f6e747261637420697320616c72656160008201527f647920696e697469616c697a6564000000000000000000000000000000000000602082015250565b6000612c69602e8361276e565b9150612c7482612c0d565b604082019050919050565b60006020820190508181036000830152612c9881612c5c565b9050919050565b7f504d303031000000000000000000000000000000000000000000000000000000600082015250565b6000612cd560058361276e565b9150612ce082612c9f565b602082019050919050565b60006020820190508181036000830152612d0481612cc8565b9050919050565b7f504d303032000000000000000000000000000000000000000000000000000000600082015250565b6000612d4160058361276e565b9150612d4c82612d0b565b602082019050919050565b60006020820190508181036000830152612d7081612d34565b9050919050565b7f504d303033000000000000000000000000000000000000000000000000000000600082015250565b6000612dad60058361276e565b9150612db882612d77565b602082019050919050565b60006020820190508181036000830152612ddc81612da0565b9050919050565b7f504d303039000000000000000000000000000000000000000000000000000000600082015250565b6000612e1960058361276e565b9150612e2482612de3565b602082019050919050565b60006020820190508181036000830152612e4881612e0c565b9050919050565b7f504d303130000000000000000000000000000000000000000000000000000000600082015250565b6000612e8560058361276e565b9150612e9082612e4f565b602082019050919050565b60006020820190508181036000830152612eb481612e78565b9050919050565b7f504d303131000000000000000000000000000000000000000000000000000000600082015250565b6000612ef160058361276e565b9150612efc82612ebb565b602082019050919050565b60006020820190508181036000830152612f2081612ee4565b9050919050565b6000606082019050612f3c600083018661249b565b612f49602083018561249b565b612f56604083018461239b565b949350505050565b600081519050612f6d816121bc565b92915050565b600060208284031215612f8957612f886121ad565b5b6000612f9784828501612f5e565b91505092915050565b61010082016000820151612fb76000850182612247565b506020820151612fca6020850182612247565b506040820151612fdd604085018261226f565b506060820151612ff06060850182612256565b5060808201516130036080850182612256565b5060a082015161301660a0850182612256565b5060c082015161302960c0850182612256565b5060e082015161303c60e0850182612256565b50505050565b6000610100820190506130586000830184612fa0565b92915050565b7f4f776e61626c653a206e6577206f776e657220697320746865207a65726f206160008201527f6464726573730000000000000000000000000000000000000000000000000000602082015250565b60006130ba60268361276e565b91506130c58261305e565b604082019050919050565b600060208201905081810360008301526130e9816130ad565b9050919050565b7f496e697469616c697a61626c653a20636f6e7472616374206973206e6f74206960008201527f6e697469616c697a696e67000000000000000000000000000000000000000000602082015250565b600061314c602b8361276e565b9150613157826130f0565b604082019050919050565b6000602082019050818103600083015261317b8161313f565b905091905056fea2646970667358221220282c2266e2ac4f377749e9152abdc4452f46f7cef0328703a5c51fe975fd810164736f6c634300080f0033",
  "linkReferences": {},
  "deployedLinkReferences": {}
}